:100000000C943B010C946C010C946C010C946C01ED
:100010000C946C010C946C010C946C010C946C01AC
:100020000C946C010C946C010C946C010C946C019C
:100030000C946C010C946C010C946C010C946C018C
:100040000C946C010C946C010C946C010C946C017C
:100050000C946C010C946C010C946C010C94BF0416
:100060000C946C010C9489040C945F040C946C0146
:100070000C946C010C946C010C946C010C946C014C
:100080000C946C010C946C010C946C010C946C013C
:100090000C946C010C946C010C946C010C946C012C
:1000A0000C946C010C946C010C946C010C946C011C
:1000B0000C946C010C946C010C946C010C946C010C
:1000C0000C946C010C946C010C946C010C946C01FC
:1000D0000C946C010C946C010C946C010C946C01EC
:1000E0000C946C010C945D030C9480030C947803C5
:1000F0000C945F020C9453030C943D020C9409057C
:100100000C9497020C9493030C9401020C946803D2
:100110000C9436040C948A030C9498030C947C037E
:100120000C946E030C9459030C948E030C94860368
:100130000C94F6030C9451020C9494030C946103F8
:100140000C94E4020C9472030C9465030C942E023C
:100150000C94C50300002100240027002A002D0074
:100160003000330001010000040107010A01000012
:100170002200250028002B002E003100340002014F
:100180000000050108010B010000200023002600EB
:1001900029002C002F00320000010000030106019D
:1001A00009010505050507050808080802020202FD
:1001B0000A0A080804040404010101010101010103
:1001C0000303030303030303040707070C0C0C0CCE
:1001D0000C0C0C0C020202020606060606060606B7
:1001E0000B0B0B0B0B0B0B0B010210202008081044
:1001F0002040102040800201020108040201010297
:10020000040810204080804020100804020180046F
:1002100002018040201008040201080402010102CA
:1002200004081020408001020408102040800000D3
:100230000A0B02090C0D0E08070304010000000060
:1002400000000000000000000000000000000000AE
:10025000000000000000000000001211100000006B
:10026000000000000000000000000000000000008E
:1002700000000000090511241FBECFEFD1E2DEBF50
:10028000CDBF00E00CBF12E0A0E0B2E0E6EBFFE083
:1002900000E00BBF02C007900D92A833B107D9F759
:1002A00023E0A8E3B2E001C01D92AD34B207E1F74C
:1002B00011E0CBE3D1E000E006C021970109802FD7
:1002C000FE010E94D107CA33D10780E00807A9F7D1
:1002D0000E9496050C94D9070C94000096E0899F23
:1002E000D0011124A252BD4F90967C936E935F97DC
:1002F00091E091969C939197E0914B03F0914C0380
:1003000090914A03992339F0309751F0811108C038
:100310008091FA021994309719F05C968C91FACF7B
:100320000895CF92DF92EF92FF920F931F9396E082
:10033000899FF0011124E252FD4F11A2278D30A1B7
:100340002130310551F178F02230310509F451C0E6
:100350002330310509F452C01F910F91FF90EF90A7
:10036000DF90CF9008956623B9F361E070E00E94BA
:100370006E012FB7F89480913D0290913E02A091BA
:100380003F02B09140022FBF809336039093370312
:10039000A0933803B0933903DFCF9FB7F894C09090
:1003A0003D02D0903E02E0903F02F09040029FBF9D
:1003B00000913603109137032091380330913903AF
:1003C000C01AD10AE20AF30A0091480310914903C6
:1003D00030E020E00C151D052E053F0550F462E0CD
:1003E00070E01F910F91FF90EF90DF90CF900C94F1
:1003F0006E016111B1CF63E070E0F3CF70E060E0B7
:10040000F0CFAF92BF92CF92DF92EF92FF920F9315
:100410001F93CF93DF936C017B018B01040F151F9A
:10042000EB015E01AE18BF08C017D10759F0699102
:10043000D601ED91FC910190F081E02DC601199556
:10044000892B79F7C501DF91CF911F910F91FF9013
:10045000EF90DF90CF90BF90AF900895FC01538D47
:10046000448D252F30E0842F90E0821B930B54178E
:1004700010F0CF96089501970895FC01918D828D1B
:10048000981761F0A28DAE0FBF2FB11D5D968C91B4
:10049000928D9F5F9F73928F90E008958FEF9FEFF3
:1004A0000895FC01918D828D981731F0828DE80FAF
:1004B000F11D858D90E008958FEF9FEF0895FC0169
:1004C000918D228D892F90E0805C9F4F821B910936
:1004D0008F739927089581E492E00E945F0221E0E2
:1004E000892B09F420E0822F0895FC01A48DA80F28
:1004F000B92FB11DA35ABF4F2C91848D90E0019666
:100500008F739927848FA689B7892C93A089B18985
:100510008C91837080648C93938D848D981306C026
:100520000288F389E02D80818F7D80830895EF928A
:10053000FF920F931F93CF93DF93EC0181E0888F9D
:100540009B8D8C8D98131AC0E889F989808185FF6D
:1005500015C09FB7F894EE89FF896083E889F9890F
:1005600080818370806480839FBF81E090E0DF9111
:10057000CF911F910F91FF90EF900895F62E0B8D64
:1005800010E00F5F1F4F0F731127E02E8C8D8E111F
:100590000CC00FB607FCFACFE889F989808185FF86
:1005A000F5CFCE010E947502F1CFEB8DEC0FFD2F40
:1005B000F11DE35AFF4FF0829FB7F8940B8FEA8941
:1005C000FB8980818062CFCFCF93DF93EC01888D50
:1005D0008823B9F0AA89BB89E889F9898C9185FDBE
:1005E00003C0808186FD0DC00FB607FCF7CF8C914C
:1005F00085FFF2CF808185FFEDCFCE010E9475028D
:10060000E9CFDF91CF91089580E090E0892B29F028
:100610000E946B0281110E94000080E090E0892B13
:1006200049F080E090E0892B29F00E9400008111C0
:100630000E94000080E090E0892B49F080E090E08B
:10064000892B29F00E94000081110E94000080E0A7
:1006500090E0892B49F080E090E0892B29F00E94FE
:10066000000081110C94000008958150823108F03F
:100670005AC0E82FF0E08827EF5BFC4F8F4F0C94B7
:10068000D10761036503530359035D0393036803B3
:100690006E03720378037C03800386038A0393034B
:1006A0008E0394039803809180008F77809380005D
:1006B0000895809180008F7DF9CF80918000877FA1
:1006C000F5CF84B58F7784BD089584B58F7DFBCF3A
:1006D0008091B0008F778093B00008958091B00032
:1006E0008F7DF9CF809190008F778093900008954F
:1006F000809190008F7DF9CF80919000877FF5CF1A
:100700008091A0008F778093A00008958091A00031
:100710008F7DF9CF8091A000877FF5CF8091200158
:100720008F77809320010895809120018F7DF9CFEC
:1007300080912001877FF5CFCF93DF93282F30E082
:10074000F901E25DFD4F8491F901E851FE4FD4912A
:10075000F901EE55FE4FC491CC23A1F081110E9406
:100760003503EC2FF0E0EE0FFF1FE857FE4FA59189
:10077000B491EC91ED2381E090E009F480E0DF9109
:10078000CF91089580E090E0FACF862F0C949C03DF
:100790001F93CF93DF93282F30E0F901E25DFD4FE7
:1007A0008491F901E851FE4FD491F901EE55FE4FC5
:1007B000C491CC23A9F0162F81110E943503EC2F90
:1007C000F0E0EE0FFF1FE259FE4FA591B4918FB7F5
:1007D000F894EC91111108C0D095DE23DC938FBF03
:1007E000DF91CF911F910895DE2BF8CF862F642FD4
:1007F0000C94C803CF93DF9390E0FC01E851FE4FC7
:1008000024918E559E4FFC0184918823C9F090E07D
:10081000880F991FFC01EC5AFE4FA591B491FC0181
:10082000E259FE4FC591D49161110DC09FB7F89464
:100830008C91209582238C938881282328839FBFC5
:10084000DF91CF910895623051F49FB7F8943C91B5
:10085000822F809583238C93E8812E2BEFCF8FB747
:10086000F894EC912E2B2C938FBFEACF862F642F18
:100870000C94FA033FB7F8948091390290913A02B0
:10088000A0913B02B0913C0226B5A89B05C02F3F2A
:1008900019F00196A11DB11D3FBFBA2FA92F982FA6
:1008A0008827BC01CD01620F711D811D911D42E0A1
:1008B000660F771F881F991F4A95D1F708951F92D9
:1008C0000F920FB60F9211240BB60F922F933F93F6
:1008D0004F935F936F937F938F939F93AF93BF9348
:1008E000EF93FF9381E492E00E947502FF91EF91F4
:1008F000BF91AF919F918F917F916F915F914F9138
:100900003F912F910F900BBE0F900FBE0F901F9035
:1009100018951F920F920FB60F9211240BB60F92DB
:100920002F938F939F93EF93FF93E0915102F09158
:1009300052028081E0915702F091580282FD1DC061
:10094000908180915A028F5F8F7320915B02821792
:1009500041F0E0915A02F0E0EF5BFD4F958F8093FC
:100960005A02FF91EF919F918F912F910F900BBEA3
:100970000F900FBE0F901F9018958081F2CF1F929D
:100980000F920FB60F9211242F933F938F939F9343
:10099000AF93BF9380913D0290913E02A0913F02A0
:1009A000B09140023091380223E0230F2D3758F5E3
:1009B0000196A11DB11D2093380280933D029093B2
:1009C0003E02A0933F02B093400280913902909181
:1009D0003A02A0913B02B0913C020196A11DB11DCB
:1009E0008093390290933A02A0933B02B0933C0269
:1009F000BF91AF919F918F913F912F910F900FBE1B
:100A00000F901F90189526E8230F0296A11DB11D87
:100A1000D2CF109244021092430288EE93E0A0E0FD
:100A2000B0E08093450290934602A0934702B093B2
:100A300048028CE192E0909342028093410285EC5F
:100A400090E090934E0280934D0284EC90E090935E
:100A5000500280934F0280EC90E09093520280937A
:100A6000510281EC90E0909354028093530282EC07
:100A700090E0909356028093550286EC90E090931C
:100A800058028093570210925A0210925B02109201
:100A90005C0210925D021092E0021092E402109249
:100AA000E3021092E5028EE292E09093DF028093DF
:100AB000DE02EAEFF2E0108214821382158236968B
:100AC00083E0E633F807B9F784E092E090934103BE
:100AD0008093400380E092E090934303809342032D
:100AE00084E0809344038093450388E092E09093F0
:100AF0003F0380933E038AE090E090934703809306
:100B0000460384EF91E09093490380934803109249
:100B10004C0310924B0310923A0310923B03109235
:100B20003C0310923D0310924A030895789484B5D3
:100B3000826084BD84B5816084BD85B5826085BDD9
:100B400085B5816085BD80916E00816080936E0067
:100B50001092810080918100826080938100809159
:100B6000810081608093810080918000816080930A
:100B700080008091B10084608093B1008091B000CA
:100B800081608093B0008091910082608093910099
:100B900080919100816080939100809190008160AC
:100BA000809390008091A10082608093A100809149
:100BB000A10081608093A1008091A000816080935A
:100BC000A000809121018260809321018091210108
:100BD00081608093210180912001816080932001B8
:100BE00080917A00846080937A0080917A0082609C
:100BF00080937A0080917A00816080937A0080915E
:100C00007A00806880937A001092C100E0915102CE
:100C1000F091520282E08083E0914D02F0914E0209
:100C20001082E0914F02F09150028FEC808310927D
:100C30005902E0915502F091560286E08083E091DE
:100C40005302F0915402808180618083E0915302CD
:100C5000F0915402808188608083E0915302F0918A
:100C60005402808180688083E0915302F0915402A5
:100C700080818F7D808360E087E30E94FA0360E0DB
:100C800087E10E94FA03812C912C5401839446E061
:100C9000242E51E4352E21E020934A038FB7F89497
:100CA00040913D0250913E0260913F02709140029E
:100CB0008FBF80913A0390913B03A0913C03B09188
:100CC0003D03481B590B6A0B7B0B809146039091A7
:100CD0004703B0E0A0E084179507A607B70708F020
:100CE0004EC1C0E080914403C81760F4E091400316
:100CF000F0914103EC0FF11D62E080810E94FA0344
:100D0000CF5FF0CF512C80914503581608F05FC09B
:100D1000052D10E0E0914203F0914303E00FF11F35
:100D200061E080810E94FA03E0914203F091430365
:100D3000E00FF11F60E080810E94C803D501C4016B
:100D4000052C04C0880F991FAA1FBB1F0A94D2F755
:100D50006C017C01E094F094412C8091440348168E
:100D6000F8F4C42DD0E0E0914003F0914103EC0F82
:100D7000FD1F80810E949C032496CC0FDD1FC25270
:100D8000DD4F892B41F4888199818C299D29998394
:100D900088834394E2CF888199818E219F21F7CF68
:100DA000E0914203F0914303E00FF11F61E0808185
:100DB0000E94C8038091420390914303080F191FBA
:100DC00060E0F80180810E94FA0353949CCF0EEDFD
:100DD00012E0E8018F8D98A1892B31F41C8E8FEFE2
:100DE0009FEF9E8F8D8F19A2269693E0CA31D90767
:100DF00089F7F12C80914403F81608F052C0E12CD9
:100E0000CF2CD12CCC0CDD1CF601EA51FD4F6F012B
:100E100020914503E21608F042C0F601608171811D
:100E20000E2C02C0769567950A94E2F7F29E900127
:100E300011242E0D311DEEEDF2E080E0458D568D32
:100E40002417350709F4ABC08F5F36968A30B1F7A7
:100E500060FF23C0EEEDF2E090E080E0448D4111B0
:100E600017C0E0913E03F0913F03E20FF31F408172
:100E7000289EF001299EF00D1124E252FD4F448F6F
:100E8000368F258F10A2178E61E00E94910105C058
:100E9000019636968A30910509F7E394B9CFF39419
:100EA000A9CF80E0F80191A19111892F0A5F1F4F0E
:100EB000C017D107B9F79FB7F89440913D02509100
:100EC0003E0260913F02709140029FBF40933A03FF
:100ED00050933B0360933C0370933D03882309F4D4
:100EE0004EC08091FF02882309F449C08091FD0221
:100EF0009091FE02019709F042C06091FA026111DF
:100F000041C080917B00877F80937B0030927C0082
:100F100080917A00806480937A0080917A0086FDC7
:100F2000FCCF809178009091790087E10E949C032A
:100F30000E943A042B013C0184E1C82ED12CE12C03
:100F4000F12C0E943A046419750986099709683ED4
:100F5000734081059105A8F3F1E0CF1AD108E108AB
:100F6000F10828EE420E23E0521E611C711CC114D0
:100F7000D104E104F10429F70E9404038CCE1092FD
:100F80004A03BFCF81E492E00E94970242E050E022
:100F900064E372E081E492E00E940102B2CF6170EA
:100FA00074CFEE0FFF1F881F8BBF0790F691E02DC7
:060FB0001994F894FFCF34
:100FB600232527291B1D1F21313233413435364263
:100FC600373839432A3023440000000097020102D3
:100FD6002E02E4025F023D025102000000003604C8
:080FE600F603C5030D0A00002B
:00000001FF
